:020000000C945E
:100002003B000C9468000C946F000C9400000C945C
:1000120000000C9400000C9400000C9400000C945E
:1000220000000C9400000C9400000C9400000C944E
:1000320000000C9400000C9400000C9400000C943E
:1000420000000C9400000C9400000C9400000C942E
:1000520000000000636F756E746572203D0080C001
:100062000200040054000A006001560002006D0103
:1000720060000000F894EE27ECBBF1E0FBBFEBBFA1
:10008200E5BF8DE0A2E0BB27ED938A95E9F780E01A
:1000920094E0A0E6ED930197E9F7E2E6F0E08591BE
:1000A2009591009761F0A591B59105901590BF01CA
:1000B200F00105900D920197E1F7FB01F0CFEFE51A
:1000C200EDBFE4E0EEBFC0E6D1E00C947B00EA9322
:1000D200FA93EFB7EA93F201319606C0EA93FA93E4
:1000E200EFB7EA93F20131972F01E991EFBFF9914E
:1000F200E9911895A0E10E94520138D00E940301B3
:10010200E0E0EA93A0E00E94F300A0E6B1E00E94E2
:100112003001E0E0E1BBEFEFE2BBE0ECEBBF789453
:10012200D201EAE0F0E00E94A801E05DE0936A01FA
:10013200D201EAE0F0E00E94AD01E05DE0936B01E4
:10014200E0E0E0936C01EAE0EA93A0E00E94F300B1
:10015200AAE6B1E00E943001A2E3B0E00E9487016A
:10016200DFCFFFCFFFE0FA95F1F70895A7B3AF70A5
:10017200A7BBC19AC098F6DFC29AF4DFA6B3C298B1
:10018200F1DFC29AEFDFC298A7FDF5CF0895A07FF5
:10019200AB2BA8BBC29A0E94B300C2980E94B300C4
:1001A2000895AA93C198A7B3A76FA7BBB8B3BF70AE
:1001B200A881EDDFA881A295EADFC19A0C947D01A6
:1001C200C29A0E94B300E6B3C2980E94B300E07FD5
:1001D20008950E94B300F4DFAE2FF2DFC198E295DA
:1001E200EA2B0895AA930E94B700E881F0E0E35950
:1001F200FE4FE081A981AE0F0E94D2007980688013
:10020200229608950E94B700A2E00E94D2000E94A6
:10021200B700ACE00E94D2000E94B700A1E00E94A9
:10022200D200E0E06E2E7E2E0895AA93EF93FF9304
:10023200A8816894AA3019F0E894791430F0639494
:10024200E0E0EA93A62DCEDF36F073948FDFC09AFA
:10025200A8810E94D200FF91EF910C947D01BA9384
:10026200AA931A93A981BA81ED91A983BA831E2F09
:10027200E03019F0A12FD9DFF5CF18812396089528
:10028200AA27BB271197F1F70895AA93C198A7B39C
:10029200A76FA7BBB8B3BF70A8810E94C800C19A5C
:1002A2002BC0AA93C298C0989880E881E058E09346
:1002B2006F01E881E054E093700120D01FD01ED07E
:1002C200DFDFA0E2E2DFDCDFA8E21CD0A4E01AD08C
:1002D200A5E818D0A7B3AF70A7BBC19A0E94EA00E5
:1002E200E53011F0E0E008C00E94B700A6E00E94ED
:1002F200D2000E940301E1E0219608950E9441018B
:10030200A0E3C3CF0E94D2000C944101109639F0B1
:1003120080ED97E00197F1F7A8951197C9F7089535
:10032200F195E195F04008950024112490E1AA0F7F
:10033200BB1F001C111C0E1A1F0A18F40E0E1F1EE2
:1003420001C0A1609A9599F7FD01D001089512D0DC
:10035200EBDF0EF4E5DF0895E894B7FF04C0A09543
:10036200B09511966894F7FDDBDFDEDFFD010EF438
:10037200D7DF0895E894F7FF02C0D2DF6894B7FF91
:1003820006C0A095B095119600F8039400FA08955E
:00000001FF
