:020000000C945E
:1000020077000C9400000C9400000C9400000C94F7
:1000120000000C9400000C9400000C9400000C945E
:1000220000000C9400000C9400000C9400000C944E
:1000320000000C9400000C9400000C9400000C943E
:1000420000000C9400000C9400000C9400000C942E
:1000520000003720003820003920002F20003420F3
:10006200003520003620002A2000312000322000F6
:100072003320002D20006320003020003D20002B83
:10008200200080C003006001540003006301570098
:10009200030066015A00030069015D0003006C0160
:1000A200600003006F016300030072016600030039
:1000B20075016900030078016C0003007B016F0089
:1000C20003007E01720003008101750003008401B8
:1000D2007800030087017B0003008A017E00030091
:1000E2008D0181000200900184000000F894EE2747
:1000F200ECBBF1E0FBBFEBBFE5BF8DE0A2E0BB27AD
:10010200ED938A95E9F780E094E0A0E6ED930197FC
:10011200E9F7E6E8F0E085919591009761F0A59105
:10012200B59105901590BF01F00105900D920197D0
:10013200E1F7FB01F0CFEFE5EDBFE4E0EEBFC0E693
:10014200D1E00C94A4002697EBE2E883E1E3E98393
:10015200E2E3EA83E3E3EB83E4E3EC83E0E0ED83D1
:1001620051E0EFEFE7BBE0EFE8BBA0E10E943A020B
:10017200E5D00E94EB01E0E0EA93A0E00E94DB01FF
:1001820020E030E02530E0E03E070CF0CBC010E08C
:10019200EAB3E070EABBEAB3EF60EABBE0EFEBBBC5
:1001A200E9B3E03FE9F3E9B31E2BA2E3B0E00E941A
:1001B2006F02EAB3E070EABBEAB3E06FEABBEFE0DA
:1001C200EBBBE9B31E2BE12FF0E0EE3EA0E0FA0715
:1001D20031F4A0E6B1E00E94180207E395C0ED3EBB
:1001E200A0E0FA0731F4A3E6B1E00E94180208E3A6
:1001F2008BC0EB3EA0E0FA0731F4A6E6B1E00E9424
:10020200180209E381C0E73EA0E0FA0731F4A9E64B
:10021200B1E00E9418020FE277C0EE3DA0E0FA07BB
:1002220031F4ACE6B1E00E94180204E36DC0ED3D8A
:10023200A0E0FA0731F4AFE6B1E00E94180205E34C
:1002420063C0EB3DA0E0FA0731F4A2E7B1E00E94FF
:10025200180206E359C0E73DA0E0FA0731F4A5E72A
:10026200B1E00E9418020AE24FC0EE3BA0E0FA079A
:1002720031F4A8E7B1E00E94180201E345C0ED3B6A
:10028200A0E0FA0731F4ABE7B1E00E94180202E302
:100292003BC0EB3BA0E0FA0731F4AEE7B1E00E94CD
:1002A200180203E331C0E73BA0E0FA0731F4A1E80A
:1002B200B1E00E9418020DE227C0EE37A0E0FA0773
:1002C20031F4A4E8B1E00E94180203E61DC0ED3744
:1002D200A0E0FA0731F4A7E8B1E00E94180200E3B7
:1002E20013C0EB37A0E0FA0731F4AAE8B1E00E94AC
:1002F20018020DE309C0E737A0E0FA0729F4ADE8D8
:10030200B1E00E9418020BE2A2E3B0E00E946F0289
:10031200DE01A20FB31FEC91E01709F050E02F5F4E
:100322003F4F30CF513011F4EFEF01C0E0E0E8BBB6
:10033200FFCFFFCFFFE0FA95F1F70895A1B3AF70B9
:10034200A1BB919A9098F6DF929AF4DFA0B39298AB
:10035200F1DF929AEFDF9298A7FDF5CF0895A07F83
:10036200AB2BA2BB929A0E949B0192980E949B0186
:100372000895AA939198A1B3A76FA1BBB2B3BF701E
:10038200A881EDDFA881A295EADF919A0C9465021B
:10039200929A0E949B01E0B392980E949B01E07F97
:1003A20008950E949B01F4DFAE2FF2DF9198E2954F
:1003B200EA2B0895AA930E949F01E881F0E0E0579A
:1003C200FE4FE081A981AE0F0E94BA015980488098
:1003D200229608950E949F01A2E00E94BA010E9403
:1003E2009F01ACE00E94BA010E949F01A1E00E941D
:1003F200BA01E0E04E2E5E2E0895AA93EF93FF938A
:10040200A8816894AA3019F0E894571430F0439404
:10041200E0E0EA93A42DCEDF36F053948FDF909A7A
:10042200A8810E94BA01FF91EF910C946502BA93E0
:10043200AA931A93A981BA81ED91A983BA831E2F37
:10044200E03019F0A12FD9DFF5CF18812396089556
:10045200AA27BB271197F1F70895AA939198A1B300
:10046200A76FA1BBB2B3BF70A8810E94B001919ADD
:100472002BC0AA93929890987880E881E058E093F4
:100482009201E881E054E093930120D01FD01ED066
:10049200DFDFA0E2E2DFDCDFA8E21CD0A4E01AD0BA
:1004A200A5E818D0A1B3AF70A1BB919A0E94D20166
:1004B200E53011F0E0E008C00E949F01A6E00E9432
:1004C200BA010E94EB01E1E0219608950E942902FF
:1004D200A0E3C3CF0E94BA010C942902109639F00E
:1004E20080ED97E00197F1F7A8951197C9F7089564
:00000001FF
