:060000000C9440000C947A
:1000060000000C9400000C9400000C9400000C946A
:1000160000000C9400000C9400000C9400000C945A
:1000260000000C9400000C9400000C9400000C944A
:1000360000000C9400000C9400000C9400000C943A
:1000460000000C9400000C9400000C940000456C19
:100056006E617A205261686D617469003936323892
:100066003135330080C00E006001540008006E0177
:100076006200020076016A000000F894EE27ECBBED
:10008600F1E0FBBFEBBFE5BF8DE0A2E0BB27ED9340
:100096008A95E9F780E094E0A0E6ED930197E9F709
:1000A600ECE6F0E085919591009761F0A591B59108
:1000B60005901590BF01F00105900D920197E1F7AB
:1000C600FB01F0CFEFE5EDBFE4E0EEBFC0E6D1E027
:1000D6000C946D00A0E10E9426011AD00E94D70060
:1000E600E0E0EA93A0E00E94C700A0E6B1E00E942B
:1000F6000401E0E0EA93A1E00E94C700AEE6B1E0A9
:100106000E940401FFCFFFCFFFE0FA95F1F70895B3
:10011600A1B3AF70A1BB919A9098F6DF929AF4DFE3
:10012600A0B39298F1DF929AEFDF9298A7FDF5CFF0
:100136000895A07FAB2BA2BB929A0E94870092984B
:100146000E9487000895AA939198A1B3A76FA1BBB7
:10015600B2B3BF70A881EDDFA881A295EADF919ABC
:100166000C945101929A0E948700E0B392980E94E3
:100176008700E07F08950E948700F4DFAE2FF2DF4C
:100186009198E295EA2B0895AA930E948B00E88144
:10019600F0E0EA58FE4FE081A981AE0F0E94A6006A
:1001A60059804880229608950E948B00A2E00E9402
:1001B600A6000E948B00ACE00E94A6000E948B0065
:1001C600A1E00E94A600E0E04E2E5E2E0895AA93BE
:1001D600EF93FF93A8816894AA3019F0E894571416
:1001E60030F04394E0E0EA93A42DCEDF36F053944A
:1001F6008FDF909AA8810E94A600FF91EF910C9440
:100206005101BA93AA931A93A981BA81ED91A98350
:10021600BA831E2FE03019F0A12FD9DFF5CF188150
:1002260023960895AA27BB271197F1F70895AA9355
:100236009198A1B3A76FA1BBB2B3BF70A8810E946A
:100246009C00919A2BC0AA93929890987880E88106
:10025600E058E0937801E881E054E093790120D0FA
:100266001FD01ED0DFDFA0E2E2DFDCDFA8E21CD079
:10027600A4E01AD0A5E818D0A1B3AF70A1BB919A9B
:100286000E94BE00E53011F0E0E008C00E948B003D
:10029600A6E00E94A6000E94D700E1E021960895FC
:1002A6000E941501A0E3C3CF0E94A6000C9415017D
:00000001FF
