:0C0000000C9477000C9400000C9400009D
:10000C000C9400000C9400000C9400000C94000064
:10001C000C9400000C9400000C9400000C94000054
:10002C000C9400000C9400000C9400000C94000044
:10003C000C9400000C9400000C9400000C94000034
:10004C000C9400000C94000037200038200039205C
:10005C00002F20003420003520003620002A2000FC
:10006C003120003220003320002D2000632000308E
:10007C0020003D20002B200080C0030060015400B4
:10008C00030063015700030066015A000300690175
:10009C005D0003006C01600003006F01630003004E
:1000AC0072016600030075016900030078016C00A1
:1000BC0003007B016F0003007E01720003008101CD
:1000CC007500030084017800030087017B000300A6
:1000DC008A017E0003008D018100020090018400E2
:1000EC000000F894EE27ECBBF1E0FBBFEBBFE5BFE3
:1000FC008DE0A2E0BB27ED938A95E9F780E094E0D0
:10010C00A0E6ED930197E9F7E6E8F0E0859195918B
:10011C00009761F0A591B59105901590BF01F00184
:10012C0005900D920197E1F7FB01F0CFEFE5EDBFE4
:10013C00E4E0EEBFC0E6D1E00C94A400A0E10E9484
:10014C00DF019CD00E949001E0E0EA93A0E00E94C5
:10015C00800110E0EAB3E070EABBEAB3EF60EABBFF
:10016C00E0EFEBBBE9B3E03FE9F3E9B31E2BA4E608
:10017C00B0E00E941402EAB3E070EABBEAB3E06FAD
:10018C00EABBEFE0EBBBE9B31E2BE12FF0E0EE3E58
:10019C00A0E0FA0719F4A0E6B1E068C0ED3EA0E0DB
:1001AC00FA0719F4A3E6B1E061C0EB3EA0E0FA0750
:1001BC0019F4A6E6B1E05AC0E73EA0E0FA0719F43C
:1001CC00A9E6B1E053C0EE3DA0E0FA0719F4ACE6A5
:1001DC00B1E04CC0ED3DA0E0FA0719F4AFE6B1E098
:1001EC0045C0EB3DA0E0FA0719F4A2E7B1E03EC030
:1001FC00E73DA0E0FA0719F4A5E7B1E037C0EE3B04
:10020C00A0E0FA0719F4A8E7B1E030C0ED3BA0E09C
:10021C00FA0719F4ABE7B1E029C0EB3BA0E0FA0711
:10022C0019F4AEE7B1E022C0E73BA0E0FA0719F4FD
:10023C00A1E8B1E01BC0EE37A0E0FA0719F4A4E87E
:10024C00B1E014C0ED37A0E0FA0719F4A7E8B1E06B
:10025C000DC0EB37A0E0FA0719F4AAE8B1E006C02C
:10026C00E737A0E0FA0721F4ADE8B1E00E94BD0148
:10027C0070CFFFCFFFE0FA95F1F70895A1B3AF70FF
:10028C00A1BB919A9098F6DF929AF4DFA0B3929862
:10029C00F1DF929AEFDF9298A7FDF5CF0895A07F3A
:1002AC00AB2BA2BB929A0E94400192980E944001F3
:1002BC000895AA939198A1B3A76FA1BBB2B3BF70D5
:1002CC00A881EDDFA881A295EADF919A0C940A022D
:1002DC00929A0E944001E0B392980E944001E07F04
:1002EC0008950E944001F4DFAE2FF2DF9198E29561
:1002FC00EA2B0895AA930E944401E881F0E0E057AC
:10030C00FE4FE081A981AE0F0E945F0159804880A9
:10031C00229608950E944401A2E00E945F010E946F
:10032C004401ACE00E945F010E944401A1E00E94E4
:10033C005F01E0E04E2E5E2E0895AA93EF93FF939B
:10034C00A8816894AA3019F0E894571430F04394BB
:10035C00E0E0EA93A42DCEDF36F053948FDF909A31
:10036C00A8810E945F01FF91EF910C940A02BA934D
:10037C00AA931A93A981BA81ED91A983BA831E2FEE
:10038C00E03019F0A12FD9DFF5CF1881239608950D
:10039C00AA27BB271197F1F70895AA939198A1B3B7
:1003AC00A76FA1BBB2B3BF70A8810E945501919AEF
:1003BC002BC0AA93929890987880E881E058E093AB
:1003CC009201E881E054E093930120D01FD01ED01D
:1003DC00DFDFA0E2E2DFDCDFA8E21CD0A4E01AD071
:1003EC00A5E818D0A1B3AF70A1BB919A0E94770178
:1003FC00E53011F0E0E008C00E944401A6E00E9444
:10040C005F010E949001E1E0219608950E94CE01C7
:10041C00A0E3C3CF0E945F010C94CE01109639F07B
:10042C0080ED97E00197F1F7A8951197C9F708951A
:00000001FF
